:020000040800F2
:0800000000000120AD8500089D
:1002000001000100000001000000000001000000EA
:10021000000002400004024000080240000C0240BE
:0A02200000100240001C0240000024
:107A000080B487B000AFF860B9607A60FB687B61D2
:107A100005E07B695A1C7A61BA68D2B21A707B6839
:107A20005A1E7A60002BF4D1FB6818461C37BD46FD
:107A300080BC704780B483B000AF786000E000BFC6
:107A40007B685A1E7A60002BF9D100BF00BF0C374B
:107A5000BD4680BC704780B400AF184B1B68174A06
:107A600043F001031360164B1B68154A43F40033BF
:107A70001360144B1B68134A23F030031360114B3F
:107A80001B68104A43F0200313600F4B1B680E4A1B
:107A900023F4706313600C4B1B680B4A43F4E063E0
:107AA00013600A4B40F283621A60094B42F20802EB
:107AB0001A6000BFBD4680BC704700BF303802402E
:107AC00040380240000002402000024008440040CC
:107AD0000C44004080B483B000AF0346FB7100BF8C
:107AE000064B1B6803F08003002BF9D0044AFB7996
:107AF000136000BF0C37BD4680BC70470044004097
:107B00000444004080B500AF104B1B680F4A43F09F
:107B1000020313600E4B1B680D4A23F4406313608D
:107B20000B4B1B680A4A43F480631360FFF793FF13
:107B3000084B1B68074A83F020031360A520FFF75A
:107B4000C9FF0548FFF776FFF2E700BF3038024073
:107B5000000402401404024040420F0080B5BEB051
:107B600000AF072387F8F7301D4B4FF011321A6032
:107B70003B1DF02200211846FFF742FF3B1D18462F
:107B800000F032F83B1D1749184600F05DF9034636
:107B900087F8F73097F8F730012B03D0072387F8E1
:107BA000F73007E03B1D0F49184600F05DFA034629
:107BB00087F8F73097F8F730012B03D0072387F8C1
:107BC000F73002E0012387F8F7304FF0773000F00C
:107BD000D5FA97F8F7301846F837BD4680BD00BF94
:107BE000082000201002000880B485B000AF786043
:107BF0000023FB731AE1FA7B91491346DB0013441F
:107C00000B441B78BB73FA7B8D491346DB0013448E
:107C10000B4401331B78BB60BB7B8A4A0121D154E2
:107C2000BA7B13469B001344DB001A467B6813445F
:107C30001968FA7B82481346DB001344034402337D
:107C40001B781A46BB685B0002FA03F31846BA7B3E
:107C500013469B001344DB001A467B68134441EA39
:107C600000021A60BA7B13469B001344DB001A46DD
:107C70007B6813445968FA7B71481346DB00134450
:107C8000034403331B781A46BB6802FA03F3184611
:107C9000BA7B13469B001344DB001A467B681344EF
:107CA00041EA00025A60BA7B13469B001344DB0092
:107CB0001A467B6813449968FA7B61481346DB00D7
:107CC0001344034404331B781A46BB685B0002FA72
:107CD00003F31846BA7B13469B001344DB001A4695
:107CE0007B68134441EA00029A60BA7B13469B000A
:107CF0001344DB001A467B681344D968FA7B50486A
:107D00001346DB001344034405331B781A46BB6853
:107D10005B0002FA03F31846BA7B13469B00134438
:107D2000DB001A467B68134441EA0002DA60BA7B42
:107D300013469B001344DB001A467B681344D96941
:107D4000FA7B3F481346DB001344034407331B7898
:107D50001A46BB6802FA03F31846BA7B13469B0027
:107D60001344DB001A467B68134441EA0002DA61DF
:107D7000BB68072B1BD8BA7B13469B001344DB0060
:107D80001A467B681344196A00231A46BB689B0095
:107D900002FA03F31846BA7B13469B001344DB0038
:107DA0001A467B68134441EA00021A621AE0BA7B61
:107DB00013469B001344DB001A467B681344596A40
:107DC00000231A46BB68203B02FA03F31846BA7B2D
:107DD00013469B001344DB001A467B68134441EAB8
:107DE00000025A62BA7B13469B001344DB001A461A
:107DF0007B6813445969FA7B11481346DB0013442E
:107E0000034406331B781A46BB6802FA03F318468C
:107E1000BA7B13469B001344DB001A467B6813446D
:107E200041EA00025A61FB7B0133FB73FB7B002BB1
:107E30003FF4E1AE00BF00BF1437BD4680BC7047C1
:107E4000000200080020002080B485B000AF7860F8
:107E500039600123FB730023BB7370E0BB7B814A55
:107E6000D35C012B68D1BA7B13469B001344DB0023
:107E70001A467B681A44BB7B9B0039680B441B681D
:107E800012681A60BA7B13469B001344DB001A4643
:107E90007B681A44BB7B9B0039680B441B685268A3
:107EA0005A60BA7B13469B001344DB001A467B687A
:107EB0001A44BB7B9B0039680B441B6892689A602C
:107EC000BA7B13469B001344DB001A467B681A44B6
:107ED000BB7B9B0039680B441B68D268DA60BA7BB5
:107EE00013469B001344DB001A467B681A44BB7B95
:107EF0009B0039680B441B6852695A61BA7B134670
:107F00009B001344DB001A467B681A44BB7B9B0032
:107F100039680B441B68126A1A62BA7B13469B00CD
:107F20001344DB001A467B681A44BB7B9B0039680C
:107F30000B441B68526A5A62BB7B0133BB73BB7B29
:107F4000052B8BD90023BB7381E0BB7B454AD35CF7
:107F5000012B79D1BB7B9B003A6813441B681968DD
:107F6000BA7B13469B001344DB001A467B6813441C
:107F70001B68994202D00723FB736CE0BB7B9B001C
:107F80003A6813441B685968BA7B13469B00134434
:107F9000DB001A467B6813445B68994202D00723D2
:107FA000FB7358E0BB7B9B003A6813441B689968DD
:107FB000BA7B13469B001344DB001A467B681344CC
:107FC0009B68994202D00723FB7344E0BB7B9B0074
:107FD0003A6813441B68D968BA7B13469B00134464
:107FE000DB001A467B681344DB68994202D0072302
:107FF000FB7330E0BB7B9B003A6813441B68196A33
:10800000BA7B13469B001344DB001A467B6813447B
:108010001B6A994202D00723FB731CE0BB7B9B00C9
:108020003A6813441B68596ABA7B13469B00134491
:10803000DB001A467B6813445B6A994202D007232F
:10804000FB7308E00123FB73BB7B0133BB73BB7B7A
:10805000052B7FF67AAFFB7B18461437BD4680BCF4
:10806000704700BF0020002080B487B000AF786068
:10807000396000233B610323BB750023FB7564E07B
:108080000023012B5ED10023FB600023FB72FA7AF0
:1080900013469B001344DB001A467B681344DA69DD
:1080A000FB7A9B0039680B441B6842F48032DA612A
:1080B000FA7A13469B001344DB001A467B6813448C
:1080C000DA69FB7A9B0039680B441B6822F4803222
:1080D000DA61FA7A13469B001344DB001A467B6888
:1080E0001344DA69FB7A9B0039680B441B6842F43D
:1080F0008032DA61FB7A9B003A6813441B68DB69C3
:10810000FB60FB7A9B003A6813441B68DB691B0C1D
:1081100003F00103FB60FB6803F48033002B08D0FD
:10812000FB7D0E4A5B00134401225A700123BB758C
:1081300008E0FB7D094A5B00134402225A700723C2
:10814000BB7505E0FB7D0133FB75FB7D002B97D0F4
:10815000BB7D18461C37BD4680BC70470000002020
:1081600080B400AF00BF1846BD4680BC704780B4E5
:1081700000AF00BF1846BD4680BC704780B584B0D4
:1081800000AF78600023FB73786800F0B9F903460C
:10819000012B02D00523FB7304E0054A7B681360C2
:1081A0000123FB73FB7B18461037BD4680BD00BF23
:1081B0000820002080B485B000AF78600023FB73F6
:1081C0007B68002B02D10623FB7305E0054B1A6880
:1081D0007B681A600123FB73FB7B18461437BD468E
:1081E00080BC70470820002080B485B000AF0346F3
:1081F0000A46FB8013467B710023FB73284B1B68E8
:10820000B3F1773F02D00423FB7342E0FB88002BDD
:1082100002D00523FB733CE0FA8822491346DB00B9
:1082200013440B441B78BB73FA881E491346DB00CA
:1082300013440B4401331B787B737B79012B10D1E2
:10824000BB7B194A52F8233059697B7B01229A4043
:10825000BB7B154850F823300A435A610123FB7356
:1082600017E07B79002B12D1BB7B0F4A52F82330E9
:1082700059697B7B012202FA03F3DA43BB7B0A488C
:1082800050F823300A405A610123FB7301E00523B3
:10829000FB73FB7B18461437BD4680BC704700BF9C
:1082A00008200020000200081002000880B485B0F9
:1082B00000AF03463960FB800023FB73204B1B6833
:1082C000B3F1773F02D00423FB7333E03B68002B0C
:1082D00002D10623FB732DE0FB88002B02D005237F
:1082E000FB7327E0FA8817491346DB0013440B445D
:1082F0001B78BB73FA8813491346DB0013440B4405
:1083000001331B787B730023BB60BB7B0E4A52F8A2
:1083100023301B69BB607B7B01229A40BB68134002
:10832000002B14BF01230023DBB21A463B681A70EE
:108330000123FB73FB7B18461437BD4680BC704796
:1083400008200020000200081002000880B485B058
:1083500000AF0346FB800023FB731A4B1B68B3F18D
:10836000773F02D00423FB7326E0FB88002B02D06A
:108370000523FB7320E0FA8813491346DB001344FE
:108380000B441B78BB73FA880F491346DB00134478
:108390000B4401331B787B73BB7B0C4A52F82330B0
:1083A00059697B7B01229A40BB7B084850F82330F7
:1083B0004A405A610123FB73FB7B18461437BD46C4
:1083C00080BC70470820002000020008100200084E
:1083D00080B485B000AF03460A46FB8013467B712C
:1083E0000023FB731D4B1B68B3F1773F02D00423BE
:1083F000FB732CE0FB88002B02D00523FB7326E0E7
:10840000FA8817491346DB0013440B441B78BB73EF
:10841000FA8813491346DB0013440B4401331B78DD
:108420007B737B79012B10D1BB7B0E4A52F8233032
:1084300099697B7B01229A40BB7B0A4850F8233024
:108440000A439A610123FB7301E00523FB73FB7B65
:1084500018461437BD4680BC704700BF0820002076
:10846000000200081002000880B485B000AF034687
:108470000A46FB8013467B710023FB731D4B1B6870
:10848000B3F1773F02D00423FB732DE0FB88002B70
:1084900002D00523FB7327E0FA8817491346DB0057
:1084A00013440B441B78BB73FA8813491346DB0053
:1084B00013440B4401331B787B737B79002B11D160
:1084C000BB7B0E4A52F8233099697B7B1033012223
:1084D0009A40BB7B094850F823300A439A61012334
:1084E000FB7301E00523FB73FB7B18461437BD4685
:1084F00080BC70470820002000020008100200081D
:1085000080B485B000AF78600023FB737B68B3F163
:10851000993F42D07B68B3F1993F41D87B68B3F172
:10852000883F3AD07B68B3F1883F39D87B68B3F194
:10853000773F32D07B68B3F1773F31D87B68B3F1B6
:10854000663F2AD07B68B3F1663F29D87B68B3F1D8
:10855000553F22D07B68B3F1553F21D87B68B3F1FA
:10856000443F1AD07B68B3F1443F19D87B68B3F11C
:10857000333F12D07B68B3F1333F11D87B68B3F13E
:10858000223F0AD07B68B3F1223F09D87B68002BD9
:1085900003D07B68B3F1113F02D10123FB7300BF0D
:1085A000FB7B18461437BD4680BC70470F48104906
:1085B000104A884204D252F8043B40F8043BF8E7E2
:1085C0000D480E490E4A884204D252F8043B40F846
:1085D000043BF8E70B480C490022884202D240F8DD
:1085E000042BFAE7FFF78EFAFFF7FEBF000000202A
:1085F0000C0000200C8600080060002000600020B5
:0C86000000620008002000200C20002078
:0C860C0000000100020003000400050053
:04000005080085ADBD
:00000001FF
